{
  "_format": "hh-sol-artifact-1",
  "contractName": "Vote",
  "sourceName": "contracts/Vote.sol",
  "abi": [
    {
      "inputs": [
        {
          "internalType": "string",
          "name": "_publicKey",
          "type": "string"
        }
      ],
      "name": "getCandidates",
      "outputs": [
        {
          "components": [
            {
              "internalType": "string",
              "name": "name",
              "type": "string"
            },
            {
              "internalType": "string",
              "name": "publicKey",
              "type": "string"
            },
            {
              "internalType": "string",
              "name": "candidate",
              "type": "string"
            },
            {
              "internalType": "string",
              "name": "constituency",
              "type": "string"
            },
            {
              "internalType": "string",
              "name": "party",
              "type": "string"
            },
            {
              "internalType": "uint256",
              "name": "count",
              "type": "uint256"
            }
          ],
          "internalType": "struct Vote.Candidate[]",
          "name": "",
          "type": "tuple[]"
        }
      ],
      "stateMutability": "view",
      "type": "function"
    },
    {
      "inputs": [],
      "name": "getConstituencies",
      "outputs": [
        {
          "internalType": "string[]",
          "name": "",
          "type": "string[]"
        }
      ],
      "stateMutability": "view",
      "type": "function"
    },
    {
      "inputs": [
        {
          "internalType": "string",
          "name": "_constituency",
          "type": "string"
        }
      ],
      "name": "getConstituencyCandidates",
      "outputs": [
        {
          "components": [
            {
              "internalType": "string",
              "name": "name",
              "type": "string"
            },
            {
              "internalType": "string",
              "name": "publicKey",
              "type": "string"
            },
            {
              "internalType": "string",
              "name": "candidate",
              "type": "string"
            },
            {
              "internalType": "string",
              "name": "constituency",
              "type": "string"
            },
            {
              "internalType": "string",
              "name": "party",
              "type": "string"
            },
            {
              "internalType": "uint256",
              "name": "count",
              "type": "uint256"
            }
          ],
          "internalType": "struct Vote.Candidate[]",
          "name": "",
          "type": "tuple[]"
        }
      ],
      "stateMutability": "view",
      "type": "function"
    },
    {
      "inputs": [
        {
          "internalType": "string",
          "name": "_publicKey",
          "type": "string"
        }
      ],
      "name": "getFingerprint",
      "outputs": [
        {
          "internalType": "string",
          "name": "",
          "type": "string"
        }
      ],
      "stateMutability": "view",
      "type": "function"
    },
    {
      "inputs": [],
      "name": "getRegisteredParties",
      "outputs": [
        {
          "components": [
            {
              "internalType": "string",
              "name": "partyName",
              "type": "string"
            },
            {
              "internalType": "string",
              "name": "leaderName",
              "type": "string"
            },
            {
              "internalType": "string",
              "name": "hash",
              "type": "string"
            }
          ],
          "internalType": "struct Vote.Party[]",
          "name": "",
          "type": "tuple[]"
        }
      ],
      "stateMutability": "view",
      "type": "function"
    },
    {
      "inputs": [
        {
          "internalType": "string",
          "name": "_publicKey",
          "type": "string"
        }
      ],
      "name": "getSign",
      "outputs": [
        {
          "internalType": "string",
          "name": "",
          "type": "string"
        }
      ],
      "stateMutability": "view",
      "type": "function"
    },
    {
      "inputs": [],
      "name": "getTotalVoteRegVoterCount",
      "outputs": [
        {
          "internalType": "uint256",
          "name": "",
          "type": "uint256"
        },
        {
          "internalType": "uint256",
          "name": "",
          "type": "uint256"
        }
      ],
      "stateMutability": "view",
      "type": "function"
    },
    {
      "inputs": [
        {
          "internalType": "string",
          "name": "_publicKey",
          "type": "string"
        },
        {
          "internalType": "string",
          "name": "_constituency",
          "type": "string"
        },
        {
          "internalType": "string",
          "name": "_party",
          "type": "string"
        }
      ],
      "name": "registerCandidate",
      "outputs": [
        {
          "internalType": "bool",
          "name": "",
          "type": "bool"
        }
      ],
      "stateMutability": "nonpayable",
      "type": "function"
    },
    {
      "inputs": [
        {
          "internalType": "string",
          "name": "_publicKey",
          "type": "string"
        },
        {
          "internalType": "string",
          "name": "_party",
          "type": "string"
        },
        {
          "internalType": "string",
          "name": "_constituency",
          "type": "string"
        }
      ],
      "name": "registerParty",
      "outputs": [
        {
          "internalType": "bool",
          "name": "",
          "type": "bool"
        }
      ],
      "stateMutability": "nonpayable",
      "type": "function"
    },
    {
      "inputs": [
        {
          "internalType": "string",
          "name": "_hash",
          "type": "string"
        },
        {
          "internalType": "string",
          "name": "_name",
          "type": "string"
        },
        {
          "internalType": "string",
          "name": "_dob",
          "type": "string"
        },
        {
          "internalType": "string",
          "name": "_id",
          "type": "string"
        },
        {
          "internalType": "string",
          "name": "_mobile",
          "type": "string"
        },
        {
          "internalType": "string",
          "name": "_fingerprint",
          "type": "string"
        },
        {
          "internalType": "string",
          "name": "_state",
          "type": "string"
        },
        {
          "internalType": "string",
          "name": "_district",
          "type": "string"
        },
        {
          "internalType": "string",
          "name": "_constituency",
          "type": "string"
        },
        {
          "internalType": "string",
          "name": "_publicKey",
          "type": "string"
        },
        {
          "internalType": "string",
          "name": "_sign",
          "type": "string"
        }
      ],
      "name": "registerVoter",
      "outputs": [
        {
          "internalType": "bool",
          "name": "",
          "type": "bool"
        }
      ],
      "stateMutability": "nonpayable",
      "type": "function"
    },
    {
      "inputs": [
        {
          "internalType": "string",
          "name": "_publicKey",
          "type": "string"
        }
      ],
      "name": "verifyCandidate",
      "outputs": [
        {
          "internalType": "bool",
          "name": "",
          "type": "bool"
        }
      ],
      "stateMutability": "view",
      "type": "function"
    },
    {
      "inputs": [
        {
          "internalType": "string",
          "name": "_publicKey",
          "type": "string"
        }
      ],
      "name": "verifyLogin",
      "outputs": [
        {
          "internalType": "bool",
          "name": "",
          "type": "bool"
        }
      ],
      "stateMutability": "view",
      "type": "function"
    },
    {
      "inputs": [
        {
          "internalType": "string",
          "name": "_party",
          "type": "string"
        }
      ],
      "name": "verifyParty",
      "outputs": [
        {
          "internalType": "bool",
          "name": "",
          "type": "bool"
        }
      ],
      "stateMutability": "view",
      "type": "function"
    },
    {
      "inputs": [
        {
          "internalType": "string",
          "name": "_publicKey",
          "type": "string"
        }
      ],
      "name": "verifyVote",
      "outputs": [
        {
          "internalType": "bool",
          "name": "",
          "type": "bool"
        }
      ],
      "stateMutability": "view",
      "type": "function"
    },
    {
      "inputs": [
        {
          "internalType": "string",
          "name": "_id",
          "type": "string"
        }
      ],
      "name": "verifyVoter",
      "outputs": [
        {
          "internalType": "bool",
          "name": "",
          "type": "bool"
        }
      ],
      "stateMutability": "view",
      "type": "function"
    },
    {
      "inputs": [
        {
          "internalType": "string",
          "name": "_publicKey",
          "type": "string"
        },
        {
          "internalType": "string",
          "name": "_votedTo",
          "type": "string"
        }
      ],
      "name": "vote",
      "outputs": [
        {
          "internalType": "bool",
          "name": "",
          "type": "bool"
        }
      ],
      "stateMutability": "nonpayable",
      "type": "function"
    }
  ],
  "bytecode": "0x60806040526000600655600060075534801561001a57600080fd5b506135058061002a6000396000f3fe608060405234801561001057600080fd5b50600436106101005760003560e01c80638d95248811610097578063ddc23ab611610066578063ddc23ab614610322578063e8d5940d14610352578063ec614bfa14610382578063f2be369e146103b257610100565b80638d952488146102625780639a71acec146102925780639dfa9065146102c2578063bebd1ad0146102f257610100565b806345534763116100d357806345534763146101a25780635cdf0397146101d257806371df9cc0146102025780638bad79991461023257610100565b80630b817c3814610105578063264df233146101235780632b47df591461015357806335c3c87614610172575b600080fd5b61010d6103d0565b60405161011a91906127a5565b60405180910390f35b61013d60048036038101906101389190612910565b6104a9565b60405161014a9190612ad9565b60405180910390f35b61015b61080a565b604051610169929190612b0a565b60405180910390f35b61018c60048036038101906101879190612b33565b61081b565b6040516101999190612bf5565b60405180910390f35b6101bc60048036038101906101b79190612910565b6113d9565b6040516101c99190612ad9565b60405180910390f35b6101ec60048036038101906101e79190612910565b611777565b6040516101f99190612c5a565b60405180910390f35b61021c60048036038101906102179190612910565b611847565b6040516102299190612bf5565b60405180910390f35b61024c60048036038101906102479190612c7c565b61187c565b6040516102599190612bf5565b60405180910390f35b61027c60048036038101906102779190612b33565b611ad2565b6040516102899190612bf5565b60405180910390f35b6102ac60048036038101906102a79190612910565b611f4a565b6040516102b99190612bf5565b60405180910390f35b6102dc60048036038101906102d79190612910565b611f7f565b6040516102e99190612bf5565b60405180910390f35b61030c60048036038101906103079190612910565b611fb4565b6040516103199190612c5a565b60405180910390f35b61033c60048036038101906103379190612910565b612064565b6040516103499190612bf5565b60405180910390f35b61036c60048036038101906103679190612ea4565b612099565b6040516103799190612bf5565b60405180910390f35b61039c60048036038101906103979190612910565b612380565b6040516103a99190612bf5565b60405180910390f35b6103ba6123d2565b6040516103c7919061303c565b60405180910390f35b60606005805480602002602001604051908101604052809291908181526020016000905b828210156104a05783829060005260206000200180546104139061308d565b80601f016020809104026020016040519081016040528092919081815260200182805461043f9061308d565b801561048c5780601f106104615761010080835404028352916020019161048c565b820191906000526020600020905b81548152906001019060200180831161046f57829003601f168201915b5050505050815260200190600101906103f4565b50505050905090565b60606009826040516104bb91906130fa565b9081526020016040518091039020805480602002602001604051908101604052809291908181526020016000905b828210156107ff57838290600052602060002090600602016040518060c001604052908160008201805461051c9061308d565b80601f01602080910402602001604051908101604052809291908181526020018280546105489061308d565b80156105955780601f1061056a57610100808354040283529160200191610595565b820191906000526020600020905b81548152906001019060200180831161057857829003601f168201915b505050505081526020016001820180546105ae9061308d565b80601f01602080910402602001604051908101604052809291908181526020018280546105da9061308d565b80156106275780601f106105fc57610100808354040283529160200191610627565b820191906000526020600020905b81548152906001019060200180831161060a57829003601f168201915b505050505081526020016002820180546106409061308d565b80601f016020809104026020016040519081016040528092919081815260200182805461066c9061308d565b80156106b95780601f1061068e576101008083540402835291602001916106b9565b820191906000526020600020905b81548152906001019060200180831161069c57829003601f168201915b505050505081526020016003820180546106d29061308d565b80601f01602080910402602001604051908101604052809291908181526020018280546106fe9061308d565b801561074b5780601f106107205761010080835404028352916020019161074b565b820191906000526020600020905b81548152906001019060200180831161072e57829003601f168201915b505050505081526020016004820180546107649061308d565b80601f01602080910402602001604051908101604052809291908181526020018280546107909061308d565b80156107dd5780601f106107b2576101008083540402835291602001916107dd565b820191906000526020600020905b8154815290600101906020018083116107c057829003601f168201915b50505050508152602001600582015481525050815260200190600101906104e9565b505050509050919050565b600080600754600654915091509091565b6000600a8460405161082d91906130fa565b908152602001604051809103902060009054906101000a900460ff16158061087d5750600b8460405161086091906130fa565b908152602001604051809103902060009054906101000a900460ff165b1561088b57600090506113d2565b6000808560405161089c91906130fa565b908152602001604051809103902080546108b59061308d565b80601f01602080910402602001604051908101604052809291908181526020018280546108e19061308d565b801561092e5780601f106109035761010080835404028352916020019161092e565b820191906000526020600020905b81548152906001019060200180831161091157829003601f168201915b50505050509050600060028260405161094791906130fa565b9081526020016040518091039020604051806101200160405290816000820180546109719061308d565b80601f016020809104026020016040519081016040528092919081815260200182805461099d9061308d565b80156109ea5780601f106109bf576101008083540402835291602001916109ea565b820191906000526020600020905b8154815290600101906020018083116109cd57829003601f168201915b50505050508152602001600182018054610a039061308d565b80601f0160208091040260200160405190810160405280929190818152602001828054610a2f9061308d565b8015610a7c5780601f10610a5157610100808354040283529160200191610a7c565b820191906000526020600020905b815481529060010190602001808311610a5f57829003601f168201915b50505050508152602001600282018054610a959061308d565b80601f0160208091040260200160405190810160405280929190818152602001828054610ac19061308d565b8015610b0e5780601f10610ae357610100808354040283529160200191610b0e565b820191906000526020600020905b815481529060010190602001808311610af157829003601f168201915b50505050508152602001600382018054610b279061308d565b80601f0160208091040260200160405190810160405280929190818152602001828054610b539061308d565b8015610ba05780601f10610b7557610100808354040283529160200191610ba0565b820191906000526020600020905b815481529060010190602001808311610b8357829003601f168201915b50505050508152602001600482018054610bb99061308d565b80601f0160208091040260200160405190810160405280929190818152602001828054610be59061308d565b8015610c325780601f10610c0757610100808354040283529160200191610c32565b820191906000526020600020905b815481529060010190602001808311610c1557829003601f168201915b50505050508152602001600582018054610c4b9061308d565b80601f0160208091040260200160405190810160405280929190818152602001828054610c779061308d565b8015610cc45780601f10610c9957610100808354040283529160200191610cc4565b820191906000526020600020905b815481529060010190602001808311610ca757829003601f168201915b50505050508152602001600682018054610cdd9061308d565b80601f0160208091040260200160405190810160405280929190818152602001828054610d099061308d565b8015610d565780601f10610d2b57610100808354040283529160200191610d56565b820191906000526020600020905b815481529060010190602001808311610d3957829003601f168201915b50505050508152602001600782018054610d6f9061308d565b80601f0160208091040260200160405190810160405280929190818152602001828054610d9b9061308d565b8015610de85780601f10610dbd57610100808354040283529160200191610de8565b820191906000526020600020905b815481529060010190602001808311610dcb57829003601f168201915b50505050508152602001600882018054610e019061308d565b80601f0160208091040260200160405190810160405280929190818152602001828054610e2d9061308d565b8015610e7a5780601f10610e4f57610100808354040283529160200191610e7a565b820191906000526020600020905b815481529060010190602001808311610e5d57829003601f168201915b50505050508152505090506000600986604051610e9791906130fa565b9081526020016040518091039020805480602002602001604051908101604052809291908181526020016000905b828210156111db57838290600052602060002090600602016040518060c0016040529081600082018054610ef89061308d565b80601f0160208091040260200160405190810160405280929190818152602001828054610f249061308d565b8015610f715780601f10610f4657610100808354040283529160200191610f71565b820191906000526020600020905b815481529060010190602001808311610f5457829003601f168201915b50505050508152602001600182018054610f8a9061308d565b80601f0160208091040260200160405190810160405280929190818152602001828054610fb69061308d565b80156110035780601f10610fd857610100808354040283529160200191611003565b820191906000526020600020905b815481529060010190602001808311610fe657829003601f168201915b5050505050815260200160028201805461101c9061308d565b80601f01602080910402602001604051908101604052809291908181526020018280546110489061308d565b80156110955780601f1061106a57610100808354040283529160200191611095565b820191906000526020600020905b81548152906001019060200180831161107857829003601f168201915b505050505081526020016003820180546110ae9061308d565b80601f01602080910402602001604051908101604052809291908181526020018280546110da9061308d565b80156111275780601f106110fc57610100808354040283529160200191611127565b820191906000526020600020905b81548152906001019060200180831161110a57829003601f168201915b505050505081526020016004820180546111409061308d565b80601f016020809104026020016040519081016040528092919081815260200182805461116c9061308d565b80156111b95780601f1061118e576101008083540402835291602001916111b9565b820191906000526020600020905b81548152906001019060200180831161119c57829003601f168201915b5050505050815260200160058201548152505081526020019060010190610ec5565b50505050905060005b815181101561123a5761121582828151811061120357611202613111565b5b602002602001015160800151876125e7565b156112275760009450505050506113d2565b80806112329061316f565b9150506111e4565b50600160098760405161124d91906130fa565b908152602001604051809103902080549050101561129b576005869080600181540180825580915050600190039060005260206000200160009091909190915090816112999190613363565b505b6009866040516112ab91906130fa565b90815260200160405180910390206040518060c0016040528084600001518152602001846101000151815260200185815260200188815260200187815260200160008152509080600181540180825580915050600190039060005260206000209060060201600090919091909150600082015181600001908161132e9190613363565b5060208201518160010190816113449190613363565b50604082015181600201908161135a9190613363565b5060608201518160030190816113709190613363565b5060808201518160040190816113869190613363565b5060a0820151816005015550506001600b886040516113a591906130fa565b908152602001604051809103902060006101000a81548160ff021916908315150217905550600193505050505b9392505050565b6060600960026000846040516113ef91906130fa565b908152602001604051809103902060405161140a91906134b8565b908152602001604051809103902060070160405161142891906134b8565b9081526020016040518091039020805480602002602001604051908101604052809291908181526020016000905b8282101561176c57838290600052602060002090600602016040518060c00160405290816000820180546114899061308d565b80601f01602080910402602001604051908101604052809291908181526020018280546114b59061308d565b80156115025780601f106114d757610100808354040283529160200191611502565b820191906000526020600020905b8154815290600101906020018083116114e557829003601f168201915b5050505050815260200160018201805461151b9061308d565b80601f01602080910402602001604051908101604052809291908181526020018280546115479061308d565b80156115945780601f1061156957610100808354040283529160200191611594565b820191906000526020600020905b81548152906001019060200180831161157757829003601f168201915b505050505081526020016002820180546115ad9061308d565b80601f01602080910402602001604051908101604052809291908181526020018280546115d99061308d565b80156116265780601f106115fb57610100808354040283529160200191611626565b820191906000526020600020905b81548152906001019060200180831161160957829003601f168201915b5050505050815260200160038201805461163f9061308d565b80601f016020809104026020016040519081016040528092919081815260200182805461166b9061308d565b80156116b85780601f1061168d576101008083540402835291602001916116b8565b820191906000526020600020905b81548152906001019060200180831161169b57829003601f168201915b505050505081526020016004820180546116d19061308d565b80601f01602080910402602001604051908101604052809291908181526020018280546116fd9061308d565b801561174a5780601f1061171f5761010080835404028352916020019161174a565b820191906000526020600020905b81548152906001019060200180831161172d57829003601f168201915b5050505050815260200160058201548152505081526020019060010190611456565b505050509050919050565b6060600260008360405161178b91906130fa565b90815260200160405180910390206040516117a691906134b8565b908152602001604051809103902060040180546117c29061308d565b80601f01602080910402602001604051908101604052809291908181526020018280546117ee9061308d565b801561183b5780601f106118105761010080835404028352916020019161183b565b820191906000526020600020905b81548152906001019060200180831161181e57829003601f168201915b50505050509050919050565b6000600a8260405161185991906130fa565b908152602001604051809103902060009054906101000a900460ff169050919050565b600060038960405161188e91906130fa565b908152602001604051809103902060009054906101000a900460ff16156118b85760009050611ac3565b600660008154809291906118cb9061316f565b91905055506001600a846040516118e291906130fa565b908152602001604051809103902060006101000a81548160ff0219169083151502179055508b60008460405161191891906130fa565b908152602001604051809103902090816119329190613363565b50600160038a60405161194591906130fa565b908152602001604051809103902060006101000a81548160ff0219169083151502179055506040518061012001604052808c81526020018b81526020018a81526020018981526020018881526020018781526020018681526020018581526020018481525060028d6040516119ba91906130fa565b908152602001604051809103902060008201518160000190816119dd9190613363565b5060208201518160010190816119f39190613363565b506040820151816002019081611a099190613363565b506060820151816003019081611a1f9190613363565b506080820151816004019081611a359190613363565b5060a0820151816005019081611a4b9190613363565b5060c0820151816006019081611a619190613363565b5060e0820151816007019081611a779190613363565b50610100820151816008019081611a8e9190613363565b5090505081600184604051611aa391906130fa565b90815260200160405180910390209081611abd9190613363565b50600190505b9b9a5050505050505050505050565b6000600a84604051611ae491906130fa565b908152602001604051809103902060009054906101000a900460ff161580611b345750600b84604051611b1791906130fa565b908152602001604051809103902060009054906101000a900460ff165b15611b425760009050611f43565b60005b600480549050811015611d0457600c84604051611b6291906130fa565b908152602001604051809103902060009054906101000a900460ff1680611ce25750611ce160048281548110611b9b57611b9a613111565b5b90600052602060002090600302016002018054611bb79061308d565b80601f0160208091040260200160405190810160405280929190818152602001828054611be39061308d565b8015611c305780601f10611c0557610100808354040283529160200191611c30565b820191906000526020600020905b815481529060010190602001808311611c1357829003601f168201915b5050505050600087604051611c4591906130fa565b90815260200160405180910390208054611c5e9061308d565b80601f0160208091040260200160405190810160405280929190818152602001828054611c8a9061308d565b8015611cd75780601f10611cac57610100808354040283529160200191611cd7565b820191906000526020600020905b815481529060010190602001808311611cba57829003601f168201915b50505050506125e7565b5b15611cf1576000915050611f43565b8080611cfc9061316f565b915050611b45565b50600460405180606001604052808581526020016002600088604051611d2a91906130fa565b9081526020016040518091039020604051611d4591906134b8565b90815260200160405180910390206000018054611d619061308d565b80601f0160208091040260200160405190810160405280929190818152602001828054611d8d9061308d565b8015611dda5780601f10611daf57610100808354040283529160200191611dda565b820191906000526020600020905b815481529060010190602001808311611dbd57829003601f168201915b50505050508152602001600087604051611df491906130fa565b90815260200160405180910390208054611e0d9061308d565b80601f0160208091040260200160405190810160405280929190818152602001828054611e399061308d565b8015611e865780601f10611e5b57610100808354040283529160200191611e86565b820191906000526020600020905b815481529060010190602001808311611e6957829003601f168201915b505050505081525090806001815401808255809150506001900390600052602060002090600302016000909190919091506000820151816000019081611ecc9190613363565b506020820151816001019081611ee29190613363565b506040820151816002019081611ef89190613363565b5050506001600c84604051611f0d91906130fa565b908152602001604051809103902060006101000a81548160ff021916908315150217905550611f3d84838561081b565b50600190505b9392505050565b6000600c82604051611f5c91906130fa565b908152602001604051809103902060009054906101000a900460ff169050919050565b6000600b82604051611f9191906130fa565b908152602001604051809103902060009054906101000a900460ff169050919050565b6060600182604051611fc691906130fa565b90815260200160405180910390208054611fdf9061308d565b80601f016020809104026020016040519081016040528092919081815260200182805461200b9061308d565b80156120585780601f1061202d57610100808354040283529160200191612058565b820191906000526020600020905b81548152906001019060200180831161203b57829003601f168201915b50505050509050919050565b600060038260405161207691906130fa565b908152602001604051809103902060009054906101000a900460ff169050919050565b6000600a836040516120ab91906130fa565b908152602001604051809103902060009054906101000a900460ff166120d4576000905061237a565b600080846040516120e591906130fa565b908152602001604051809103902080546120fe9061308d565b80601f016020809104026020016040519081016040528092919081815260200182805461212a9061308d565b80156121775780601f1061214c57610100808354040283529160200191612177565b820191906000526020600020905b81548152906001019060200180831161215a57829003601f168201915b5050505050905060088160405161218e91906130fa565b908152602001604051809103902060009054906101000a900460ff16156121b957600091505061237a565b60006002826040516121cb91906130fa565b9081526020016040518091039020905060006009826007016040516121f091906134b8565b9081526020016040518091039020905060005b8180549050811015612371576122c582828154811061222557612224613111565b5b906000526020600020906006020160020180546122419061308d565b80601f016020809104026020016040519081016040528092919081815260200182805461226d9061308d565b80156122ba5780601f1061228f576101008083540402835291602001916122ba565b820191906000526020600020905b81548152906001019060200180831161229d57829003601f168201915b5050505050876125e7565b1561235e578181815481106122dd576122dc613111565b5b906000526020600020906006020160050160008154809291906122ff9061316f565b9190505550600160088560405161231691906130fa565b908152602001604051809103902060006101000a81548160ff02191690831515021790555060076000815461234a9061316f565b91905081905550600194505050505061237a565b80806123699061316f565b915050612203565b50600093505050505b92915050565b6000600860008360405161239491906130fa565b90815260200160405180910390206040516123af91906134b8565b908152602001604051809103902060009054906101000a900460ff169050919050565b60606004805480602002602001604051908101604052809291908181526020016000905b828210156125de57838290600052602060002090600302016040518060600160405290816000820180546124299061308d565b80601f01602080910402602001604051908101604052809291908181526020018280546124559061308d565b80156124a25780601f10612477576101008083540402835291602001916124a2565b820191906000526020600020905b81548152906001019060200180831161248557829003601f168201915b505050505081526020016001820180546124bb9061308d565b80601f01602080910402602001604051908101604052809291908181526020018280546124e79061308d565b80156125345780601f1061250957610100808354040283529160200191612534565b820191906000526020600020905b81548152906001019060200180831161251757829003601f168201915b5050505050815260200160028201805461254d9061308d565b80601f01602080910402602001604051908101604052809291908181526020018280546125799061308d565b80156125c65780601f1061259b576101008083540402835291602001916125c6565b820191906000526020600020905b8154815290600101906020018083116125a957829003601f168201915b505050505081525050815260200190600101906123f6565b50505050905090565b600081518351146125fb576000905061264d565b8160405160200161260c91906130fa565b604051602081830303815290604052805190602001208360405160200161263391906130fa565b604051602081830303815290604052805190602001201490505b92915050565b600081519050919050565b600082825260208201905092915050565b6000819050602082019050919050565b600081519050919050565b600082825260208201905092915050565b60005b838110156126b957808201518184015260208101905061269e565b60008484015250505050565b6000601f19601f8301169050919050565b60006126e18261267f565b6126eb818561268a565b93506126fb81856020860161269b565b612704816126c5565b840191505092915050565b600061271b83836126d6565b905092915050565b6000602082019050919050565b600061273b82612653565b612745818561265e565b9350836020820285016127578561266f565b8060005b858110156127935784840389528151612774858261270f565b945061277f83612723565b925060208a0199505060018101905061275b565b50829750879550505050505092915050565b600060208201905081810360008301526127bf8184612730565b905092915050565b6000604051905090565b600080fd5b600080fd5b600080fd5b600080fd5b7f4e487b7100000000000000000000000000000000000000000000000000000000600052604160045260246000fd5b61281d826126c5565b810181811067ffffffffffffffff8211171561283c5761283b6127e5565b5b80604052505050565b600061284f6127c7565b905061285b8282612814565b919050565b600067ffffffffffffffff82111561287b5761287a6127e5565b5b612884826126c5565b9050602081019050919050565b82818337600083830152505050565b60006128b36128ae84612860565b612845565b9050828152602081018484840111156128cf576128ce6127e0565b5b6128da848285612891565b509392505050565b600082601f8301126128f7576128f66127db565b5b81356129078482602086016128a0565b91505092915050565b600060208284031215612926576129256127d1565b5b600082013567ffffffffffffffff811115612944576129436127d6565b5b612950848285016128e2565b91505092915050565b600081519050919050565b600082825260208201905092915050565b6000819050602082019050919050565b6000819050919050565b61299881612985565b82525050565b600060c08301600083015184820360008601526129bb82826126d6565b915050602083015184820360208601526129d582826126d6565b915050604083015184820360408601526129ef82826126d6565b91505060608301518482036060860152612a0982826126d6565b91505060808301518482036080860152612a2382826126d6565b91505060a0830151612a3860a086018261298f565b508091505092915050565b6000612a4f838361299e565b905092915050565b6000602082019050919050565b6000612a6f82612959565b612a798185612964565b935083602082028501612a8b85612975565b8060005b85811015612ac75784840389528151612aa88582612a43565b9450612ab383612a57565b925060208a01995050600181019050612a8f565b50829750879550505050505092915050565b60006020820190508181036000830152612af38184612a64565b905092915050565b612b0481612985565b82525050565b6000604082019050612b1f6000830185612afb565b612b2c6020830184612afb565b9392505050565b600080600060608486031215612b4c57612b4b6127d1565b5b600084013567ffffffffffffffff811115612b6a57612b696127d6565b5b612b76868287016128e2565b935050602084013567ffffffffffffffff811115612b9757612b966127d6565b5b612ba3868287016128e2565b925050604084013567ffffffffffffffff811115612bc457612bc36127d6565b5b612bd0868287016128e2565b9150509250925092565b60008115159050919050565b612bef81612bda565b82525050565b6000602082019050612c0a6000830184612be6565b92915050565b600082825260208201905092915050565b6000612c2c8261267f565b612c368185612c10565b9350612c4681856020860161269b565b612c4f816126c5565b840191505092915050565b60006020820190508181036000830152612c748184612c21565b905092915050565b60008060008060008060008060008060006101608c8e031215612ca257612ca16127d1565b5b60008c013567ffffffffffffffff811115612cc057612cbf6127d6565b5b612ccc8e828f016128e2565b9b505060208c013567ffffffffffffffff811115612ced57612cec6127d6565b5b612cf98e828f016128e2565b9a505060408c013567ffffffffffffffff811115612d1a57612d196127d6565b5b612d268e828f016128e2565b99505060608c013567ffffffffffffffff811115612d4757612d466127d6565b5b612d538e828f016128e2565b98505060808c013567ffffffffffffffff811115612d7457612d736127d6565b5b612d808e828f016128e2565b97505060a08c013567ffffffffffffffff811115612da157612da06127d6565b5b612dad8e828f016128e2565b96505060c08c013567ffffffffffffffff811115612dce57612dcd6127d6565b5b612dda8e828f016128e2565b95505060e08c013567ffffffffffffffff811115612dfb57612dfa6127d6565b5b612e078e828f016128e2565b9450506101008c013567ffffffffffffffff811115612e2957612e286127d6565b5b612e358e828f016128e2565b9350506101208c013567ffffffffffffffff811115612e5757612e566127d6565b5b612e638e828f016128e2565b9250506101408c013567ffffffffffffffff811115612e8557612e846127d6565b5b612e918e828f016128e2565b9150509295989b509295989b9093969950565b60008060408385031215612ebb57612eba6127d1565b5b600083013567ffffffffffffffff811115612ed957612ed86127d6565b5b612ee5858286016128e2565b925050602083013567ffffffffffffffff811115612f0657612f056127d6565b5b612f12858286016128e2565b9150509250929050565b600081519050919050565b600082825260208201905092915050565b6000819050602082019050919050565b60006060830160008301518482036000860152612f6582826126d6565b91505060208301518482036020860152612f7f82826126d6565b91505060408301518482036040860152612f9982826126d6565b9150508091505092915050565b6000612fb28383612f48565b905092915050565b6000602082019050919050565b6000612fd282612f1c565b612fdc8185612f27565b935083602082028501612fee85612f38565b8060005b8581101561302a578484038952815161300b8582612fa6565b945061301683612fba565b925060208a01995050600181019050612ff2565b50829750879550505050505092915050565b600060208201905081810360008301526130568184612fc7565b905092915050565b7f4e487b7100000000000000000000000000000000000000000000000000000000600052602260045260246000fd5b600060028204905060018216806130a557607f821691505b6020821081036130b8576130b761305e565b5b50919050565b600081905092915050565b60006130d48261267f565b6130de81856130be565b93506130ee81856020860161269b565b80840191505092915050565b600061310682846130c9565b915081905092915050565b7f4e487b7100000000000000000000000000000000000000000000000000000000600052603260045260246000fd5b7f4e487b7100000000000000000000000000000000000000000000000000000000600052601160045260246000fd5b600061317a82612985565b91507fffffffffffffffffffffffffffffffffffffffffffffffffffffffffffffffff82036131ac576131ab613140565b5b600182019050919050565b60008190508160005260206000209050919050565b60006020601f8301049050919050565b600082821b905092915050565b6000600883026132197fffffffffffffffffffffffffffffffffffffffffffffffffffffffffffffffff826131dc565b61322386836131dc565b95508019841693508086168417925050509392505050565b6000819050919050565b600061326061325b61325684612985565b61323b565b612985565b9050919050565b6000819050919050565b61327a83613245565b61328e61328682613267565b8484546131e9565b825550505050565b600090565b6132a3613296565b6132ae818484613271565b505050565b5b818110156132d2576132c760008261329b565b6001810190506132b4565b5050565b601f821115613317576132e8816131b7565b6132f1846131cc565b81016020851015613300578190505b61331461330c856131cc565b8301826132b3565b50505b505050565b600082821c905092915050565b600061333a6000198460080261331c565b1980831691505092915050565b60006133538383613329565b9150826002028217905092915050565b61336c8261267f565b67ffffffffffffffff811115613385576133846127e5565b5b61338f825461308d565b61339a8282856132d6565b600060209050601f8311600181146133cd57600084156133bb578287015190505b6133c58582613347565b86555061342d565b601f1984166133db866131b7565b60005b82811015613403578489015182556001820191506020850194506020810190506133de565b86831015613420578489015161341c601f891682613329565b8355505b6001600288020188555050505b505050505050565b600081546134428161308d565b61344c81866130be565b94506001821660008114613467576001811461347c576134af565b60ff19831686528115158202860193506134af565b613485856131b7565b60005b838110156134a757815481890152600182019150602081019050613488565b838801955050505b50505092915050565b60006134c48284613435565b91508190509291505056fea2646970667358221220c2ba6ffc8f9ce4c42452f7dba6b4c0ff321fa06138720cdec877d35c6a95a51764736f6c63430008110033",
  "linkReferences": {},
  "deployedLinkReferences": {}
}